:02000000642A70
:10000800FF00030E83010317A8000A08A9008A014C
:1000180070080313A2007C08A1007D08A000A0219D
:100028008B1C21288B108B1683168116FE308312A9
:1000380081000130CF000030D0000B1D2A280B11A1
:10004800FE3081000130B9000030BA000B1C712865
:100058000B10061E572800303E06031D35280130B8
:100068003D0603194928003083164F06031D3E2814
:1000780002304E060319492800305D06031D462844
:1000880003305C06031949285728003083123C06C0
:10009800031D502801303B06031D572801308316E5
:1000A800E8000030E9008312861E692800308316B4
:1000B8005F06031D612801305E06031D6928DE0105
:1000C800DF010130A0000030A1008312861D7128D5
:1000D80001308316A9000030AA0083122208F0001C
:1000E8002108FC002008FD00031729088A00280EB3
:0800F8008300FF0E7F0E0900DA
:100100000F3083120313FC004730FD00FD0B8628DF
:0A011000FC0B862800000000080028
:06011A00000000000800D7
:0E012000213083120313FD00FD0B942808000C
:10012E0083120317B81B9E2803138813A0280313EA
:10013E0088170317381BA62803130813A8280313C0
:10014E0008170317B81AAE2803138812B028031322
:10015E0088160317381AB62803130812B828031383
:10016E0008166F18BC280814BD28081088148D2096
:10017E0088100317B819C62803138813C828031349
:10018E00881703173819CE2803130813D028031322
:10019E0008170317B818D62803138812D828031384
:1001AE00881603173818DE2803130812E0280313E5
:1001BE0008166F18E4280814E528081088148D20F6
:0E01CE0088106F1CEC288020ED28902008007F
:1001DC0083120313F801F9011030FC00710DF80DB6
:1001EC00F90D7408F8027508031C750FF902031851
:1001FC0006297408F80775080318750FF90703101A
:0A020C00F00DF10DFC0BF4280800C2
:0E0216008312031727088A00260882000800BA
:10022400831203136F1003173308B80097206F1459
:020234000800C0
:1002360083120317B601053036020318292936083A
:100246003507840020308000B60A1E293608350797
:1002560084008001B60336083507B7000A30F4007B
:10026600F5013308F0003408F100EE207808F000BC
:100276007908F1003030F00703173708840070085A
:1002860080000A30F400F5013308F0003408F1006C
:10029600EE2070080317B3007108B4000030710631
:1002A600031D572900307006031D5A295C29B60321
:0402B6002E290800E5
:1002BA006F29803083120317AA008229C030AA004E
:1002CA0082299430AA008229D430AA008229803057
:1002DA00AA008229831203172A08013A03195E2900
:1002EA002A08023A031963292A08033A03196629D4
:1002FA002A08043A031969296C292B03F0002A08F1
:10030A00F0077008AA007008B80097206F1003174A
:10031A00AD012D082C078400000803199D292D081A
:10032A002C0784000008B30012210317AD0A8E2996
:06033A0003136F1408001C
:1003400083160313881008100812881208138813E4
:10035000831288100810881308138812081280204E
:10036000802080208816081688148D208810802010
:1003700088148D208810802088148D20881080207B
:10038000081288148D208810802088148D208810F1
:100390008812881788148D208810802088130816EA
:1003A00088148D208810081288148D2088108020D1
:1003B00088148D208810081688148D2088108020BD
:1003C000081288148D2088108817081788160816B8
:0C03D00088148D20881080206F14080015
:1003DC0083120317AF01B0012A08B1002B08B20039
:1003EC0080302B06F00080307002031DFF29003096
:1003FC002A0203180D2A0130AF000030B0002A0881
:10040C00003CB1002B08031C013EB201B2023108C2
:10041C00B3003208B4002C08B5001B210630AD0027
:10042C000030AE002E08003C031D1E2A2D08003C97
:10043C000318392A2D082C07F20001302D02F00088
:10044C000030031C013E2E02F10070082C078400C2
:10045C000008F00072088400700880000130AD02C2
:10046C00031CAE03182A2C088400203080002F08AF
:10047C0030040319572AAD01AE012D082C07840056
:10048C000008203A031D4E2AAD0A0319AE0A432A6E
:10049C000130AD02031CAE032D082C0784002D3057
:0404AC0080000800C4
:1004B0000B218A110A128000840AA60A0319A70ACE
:0804C000F003031D582A080097
:1004C800FC25A02101300317B80097200C30031732
:1004D800B8009720831606148116FE308312810017
:1004E8008B178B15831601170B16861507108710A7
:1004F8000711871185100511051083128710071140
:100508008711071085100511051083120108FF3A9D
:10051800031DB32A01300317B800972001300317D1
:10052800AA000130AB005330AC005D210230031744
:10053800AA000130AB005D30AC005D210230FB0049
:100548000430FC00BA30FD00FD0BA82AFC0BA82AD9
:10055800FB0BA82A000001300317B80097200030D1
:100568003A06031DB92A01303906031DE62A01306F
:100578000317B800972001300317AA000130AB0019
:100588002330AC005D2102300317AA000130AB0014
:100598002F30AC005D210230FB000430FC00BA3083
:1005A800FD00FD0BD52AFC0BD52AFB0BD52A000034
:1005B80001300317B8009720B901BA010130BB0018
:1005C8000030BC0000305006031DEC2A01304F06F5
:1005D800031DF22BCF01D0018030F000803052068D
:1005E8007002031DF92A5108033C03181D2B013022
:1005F800D102031CD20301300317B8009720013041
:100608000317AA000130AB003F30AC005D21023077
:10061800FB000430FC00BA30FD00FD0B112BFC0B75
:10062800112BFB0B112B000001300317B80097208A
:10063800F22B8030F000803052067002031D262B0A
:100648005108033C031CF22BD10A0319D20A8B155B
:1006580000305206031D322B01305106031D6D2B4D
:100668000130BD000030BE0001300317AA00003081
:10067800AB001630AC00EE210130B80097200130F5
:100688000317AA000130AB00D030AC005D21023066
:100698000317AA000130AB001630AC005D21023010
:1006A8000317AA000830AB00D630AC005D21023039
:1006B800FB000430FC00BA30FD00FD0B612BFC0B85
:1006C800612BFB0B612B000001300317B80097204A
:1006D800F22B00305206031D732B02305106031D06
:1006E800B02B02308316CE000030CF0002308312C8
:1006F8000317AA000030AB001630AC00EE21013021
:10070800B800972001300317AA000130AB00C230AF
:10071800AC005D2102300317AA000130AB0016308F
:10072800AC005D2102300317AA000830AB00C830C6
:10073800AC005D210230FB000430FC00BA30FD0043
:10074800FD0BA42BFC0BA42BFB0BA42B00000130EE
:100758000317B8009720F22B00305206031DB62B62
:1007680003305106031DF22B03308316DC000030E2
:10077800DD00033083120317AA000030AB001630E7
:10078800AC00EE210130B800972001300317AA0011
:100798000130AB00EA30AC005D2102300317AA003B
:1007A8000130AB001630AC005D2102300317AA00FF
:1007B8000830AB001030AC005D210230FB00043083
:1007C800FC00BA30FD00FD0BE72BFC0BE72BFB0B05
:1007D800E72B000001300317B8009720003083167C
:1007E8006906031DF92B01306806031D432CE80137
:1007F800E9018312BB01BC0101308316DE00003021
:10080800DF008312851401300317B80097200130E8
:100818000317AA000130AB00E030AC005D2183165D
:10082800C001C10180304106F00080307002031D14
:100838001F2C0330400203183D2C83128715823089
:10084800FC00DD30FD00FD0B272CFC0B272C0000E5
:10085800000087118230FC00DD30FD00FD0B322CDA
:10086800FC0B322C000000008316C00A0319C10AD1
:10087800162C8312851001300317B800972000301A
:1008880083162106031D4A2C01302006031D522D14
:10089800A001A1010130A2000030A3008312ED0ADB
:1008A8000319EE0A0130D102031CD20300303E06C0
:1008B800031D602C01303D06031DAA2C3D080317BB
:1008C800AA0003133E080317AB001630AC00EE2154
:1008D8000130B800972001300317AA000130AB009F
:1008E8006030AC005D2102300317AA000130AB0074
:1008F8006530AC005D2102300317AA000730AB0059
:100908001630AC005D21051587150430FB000C304E
:10091800FC003330FD00FD0B8F2CFC0B8F2CFB0BE8
:100928008F2C00000000871105118230FC00DD309B
:10093800FD00FD0B9D2CFC0B9D2C000000000130E0
:100948000317B8009720BD01BE01522D0030831651
:100958004F06031DB12C02304E06031DFF2C4E0816
:1009680083120317AA00831603134F088312031771
:10097800AB001630AC00EE210130B80097200130F2
:100988000317AA000130AB00A430AC005D2102308F
:100998000317AA000130AB00B330AC005D21023070
:1009A8000317AA000730AB001630AC005D2105150F
:1009B80087150430FB000C30FC003330FD00FD0BC4
:1009C800E32CFC0BE32CFB0BE32C0000000087114D
:1009D80005118230FC00DD30FD00FD0BF12CFC0B15
:1009E800F12C0000000001300317B800972083168F
:1009F800CE01CF01522D00305D06031D052D0330B9
:100A08005C06031D522D5C0883120317AA00831687
:100A180003135D0883120317AB001630AC00EE21F8
:100A28000130B800972001300317AA000130AB004D
:100A3800BB30AC005D2102300317AA000130AB00C7
:100A4800AB30AC005D2102300317AA000730AB00C1
:100A58001630AC005D21051587150430FB000C30FD
:100A6800FC003330FD00FD0B372DFC0B372DFB0B45
:100A7800372D00000000871105118230FC00DD30A1
:100A8800FD00FD0B452DFC0B452D0000000001303D
:100A98000317B80097208316DC01DD01892A532D3E
:100BF800233084004C3083120313F000A93003170C
:100C0800A6000530A7005822A03084005030F0001C
:100C180059300317A6000530A70058221030831753
:100C280084000630F000F5300317A6000530A70051
:060C38005822831308009E
:040AB20000340034D8
:040AB60000340034D4
:0A0ABA0062347934653420340034CE
:040AC40000340034C6
:100AC80042346F3472346E34653420343A3400342E
:100AD80042346F3472346E34653420343A3400341E
:0A0AE80062347934653420340034A0
:040AF2000034003498
:0C0AF60042346F3472346E3465340034C6
:0C0B020064346934733470346F34003490
:040B0E00003400347B
:0C0B120042346F3472346E3465340034A9
:0C0B1E0064346934733470346F34003474
:040B2A00003400345F
:040B2E00003400345B
:100B320045344E345434523445345A34203400341B
:040B42000034003447
:0C0B460042346F3472346E346534003475
:100B520052346534733465347234763461347434A7
:080B620069346F346E34003475
:100B6A0063346F346E346634693472346D34653488
:040B7A0065340034AA
:040B7E00003400340B
:040B82000034003407
:040B86000034003403
:100B8A004E344F344E342034443469347334703420
:100B9A006F346E34693462346C3465342034003412
:040BAA0000340034DF
:040BAE0000340034DB
:100BB20063346F346E346634693472346D34653440
:040BC2007A3400344D
:060BC600723465340034B6
:0A0BCC0062347934653420340034BB
:100BD60042346F3472346E34653420343A3400341F
:040BE60000340034A3
:0C0BEA0064346934733470346F340034A8
:02400E007A3BFB
:00000001FF
