:02000000C12C11
:10000800FF00030E83018316ED000A08EC008A0145
:1000180004088312A00072248B1C18298B108030CE
:10002800F0008030831246067002031D1D28450823
:10003800033C03183E28013003179E00E4220130D8
:1000480003179000013091004D3092001D240230BA
:10005800FB000430FC00BA30FD00FD0B3128FC0B1E
:100068003128FB0B312800000130831203179E0052
:10007800E42218298030F000803046067002031D03
:1000880047284508033C031C1829C50A0319C60A52
:100098008B1500304606031D532801304506031D05
:1000A80091280130DD000030DE0001300317900098
:1000B80000309100DC309200B32301309E00E4222E
:1000C80001300317900001309100473092001D2441
:1000D800023083120317900001309100DC30920047
:1000E8001D240230831203179000083091002D3030
:1000F80092001D240230FB000430FC00BA30FD00E1
:10010800FD0B8428FC0B8428FB0B8428000001309D
:10011800831203179E00E422182900304606031DA7
:10012800972802304506031DD5280230B300003059
:10013800B40002300317900000309100DC309200C8
:10014800B32301309E00E4220130031790000130F0
:100158009100213092001D24023083120317900071
:1001680001309100DC3092001D2402308312031705
:10017800900008309100273092001D240230FB00C7
:100188000430FC00BA30FD00FD0BC828FC0BC82861
:10019800FB0BC82800000130831203179E00E422DD
:1001A800182900304606031DDB2803304506031DC9
:1001B80018290330B7000030B80003300317900047
:1001C80000309100DC309200B32301309E00E4221D
:1001D80001300317900001309100393092001D243E
:1001E800023083120317900001309100DC30920036
:1001F8001D240230831203179000083091003F300D
:1002080092001D240230FB000430FC00BA30FD00CF
:10021800FD0B0C29FC0B0C29FB0B0C2900000130F1
:10022800831203179E00E4220B1C902A83120B10E2
:10023800061E7F2980303606F00080307002031DCC
:1002480027290330350203187F2900305E06031D75
:100258002F2901305D060319422900303406031D99
:100268003729023033060319422900303806031DA6
:100278003F2903303706031942297F29B50A031994
:10028800B60A8514013003179E00E42201300317D3
:10029800900001309100A03092001D248312DF01EC
:1002A800E00180306006F00080307002031D5E2996
:1002B80003305F0203187A2987158230FC00DD308D
:1002C800FD00FD0B6529FC0B652900000000871166
:1002D8008230FC00DD30FD00FD0B7029FC0B70291D
:1002E80000000000DF0A0319E00A552985100130D3
:1002F80003179E00E422861E902A8030F00080308A
:1003080036067002031D8A293508003C0318902A16
:100318000130B502031CB6030130C502031CC60335
:1003280000305E06031D9A2901305D06031DEB2986
:100338000130C502031CC6035D08031790000313B0
:100348005E0803179100DC309200B32301309E0051
:10035800E4220130031790000130910061309200CF
:100368001D2402308312031790000130910066307B
:1003780092001D2402308312031790000730910069
:10038800DC3092001D248312051587150430FB000C
:100398000C30FC003330FD00FD0BD029FC0BD029BC
:1003A800FB0BD02900000000871105118230FC00EA
:1003B800DD30FD00FD0BDE29FC0BDE29000000000E
:1003C800013003179E00E422DD01DE01902A00308F
:1003D8003406031DF12902303306031D3E2A330873
:1003E800031790000313340803179100DC309200C0
:1003F800B32301309E00E42201300317900001303E
:100408009100A83092001D24023083120317900037
:1004180001309100C53092001D2402308312031769
:10042800900007309100DC3092001D2483120515DE
:1004380087150430FB000C30FC003330FD00FD0B49
:10044800232AFC0B232AFB0B232A00000000871118
:1004580005118230FC00DD30FD00FD0B312AFC0B5C
:10046800312A00000000013003179E00E422B30186
:10047800B401902A00303806031D442A0330370699
:10048800031D902A37080317900003133808031731
:100498009100DC309200B32301309E00E422013049
:1004A8000317900001309100CD3092001D240230D6
:1004B80083120317900001309100D23092001D245E
:1004C800023083120317900007309100DC3092004D
:1004D8001D248312051587150430FB000C30FC0021
:1004E8003330FD00FD0B762AFC0B762AFB0B762AAF
:1004F80000000000871105118230FC00DD30FD008E
:10050800FD0B842AFC0B842A00000000013003172D
:100518009E00E422B701B8010B1DC22A83120516FA
:10052800051EBF2AEE0A0319EF0A00306F06031DE5
:100538009F2A01306E06031DA22ABF2A00306F06CB
:10054800031DA82A02306E06031DBF2A01300317B7
:100558009E00E42201300317900001309100AD3075
:1005680092001D240230831203179000043091007A
:10057800BA3092001D24831205100B118312200833
:10058800840083166C088A006D0E8300FF0E7F0EB0
:02059800090058
:06059A0000000000080053
:1005A0000F3083120313FC004730FD00FD0BD62AE9
:0A05B000FC0BD62A00000000080032
:0E05BA00213083120313FD00FD0BE12A08001F
:1005C800831203179E1BEB2A03138813ED2A0313C8
:1005D800881703171E1BF32A03130813F52A03139E
:1005E800081703179E1AFB2A03138812FD2A031300
:1005F800881603171E1A032B03130812052B03135F
:10060800081683166E180B2B831208140D2B8312F1
:1006180008108814CD22881003179E19162B03136F
:100628008813182B0313881703171E191E2B03137F
:100638000813202B0313081703179E18262B0313E0
:100648008812282B0313881603171E182E2B031342
:100658000812302B0313081683166E18362B8312D4
:100668000814382B831208108814CD22881083169A
:0C0678006E1C402BD022412BDD2208001C
:1006840083120313F801F9011030FC00710DF80D09
:10069400F90D7408F8027508031C750FF9020318A4
:1006A4005A2B7408F80775080318750FF907031017
:0A06B400F00DF10DFC0B482B0800BF
:0E06BE00831603135B088A005A0882000800A6
:1006CC00831603136E108312031719089E00E4227D
:0606DC0083166E140800F5
:1006E200831203179C0105301C0203187F2B1C0880
:1006F2001B078400203080009C0A742B1C081B07F7
:10070200840080019C031C081B079D000A30F40032
:10071200F5011908F0001A08F10042237808F000E8
:100722007908F1003030F00703171D0884007008C3
:1007320080000A30F400F5011908F0001A08F100EF
:10074200422370080317990071089A00003071065D
:10075200031DAD2B00307006031DB02BB22B9C0382
:04076200842B0800DC
:100766008312031795019601100897001108980047
:1007760080301106F00080307002031DC42B00305B
:1007860010020318D22B0130950000309600100895
:10079600003C97001108031C013E980198021708B7
:1007A600990018089A0012089B00712306309300DE
:1007B600003094001408003C031DE32B1308003C92
:1007C6000318FE2B13081207F20001301302F00083
:1007D6000030031C013E1402F10070081207840069
:1007E6000008F0007208840070088000013093024F
:1007F600031C9403DD2B12088400203080001508AA
:10080600160403191C2C9301940113081207840083
:100816000008203A031D132C930A0319940A082C86
:1008260001309302031C94031308120784002D3031
:040836008000080036
:10083A002F2C8030831203179000422CC030900076
:10084A00422C94309000422CD4309000422C8030BC
:10085A009000422C831203171008013A03191E2C28
:10086A001008023A0319232C1008033A0319262CFC
:10087A001008043A0319292C2C2C1103F000100833
:10088A00F0077008900070089E00E42283166E102C
:10089A00EF016F0883120317120784000008031977
:1008AA00622C831603136F0883120317120784003E
:1008BA00000899006623EF0A4E2C831603136E1460
:0208CA00080024
:1008CC005F238A110A128000840ADA0A0319DB0AF0
:0808DC00F003031D662C080067
:1008E400831603138810081008128812081388133B
:1008F4008312881008108813081388120812D02253
:10090400D022D022881608168814CD228810D0222E
:100914008814CD228810D0228814CD228810D022A9
:1009240008128814CD228810D0228814CD22881071
:10093400881288178814CD228810D02288130816AC
:100944008814CD22881008128814CD228810D02251
:100954008814CD22881008168814CD228810D0223D
:1009640008128814CD2288108817081788160816CC
:0E0974008814CD228810D02283166E1408003D
:1009820070258B178B158316031301170B168B1605
:10099200811601160516FE30831281008316071098
:1009A2008710071187118510051105108312051292
:1009B2008710071187110710851005110510E02C0B
:0209C200E12C26
:100AE000213084004D3083120313F000E730831669
:100AF000DA000430DB006624A030840025300313C4
:100B0000F00034308316DA000530DB0066246E30E6
:100B1000840002300313F0006E308316DA000530D3
:100B2000DB006624C530840015300313F000593013
:0C0B30008316DA000530DB0066240800A4
:0C09CE0042346F3472346E3465340034EF
:0C09DA0064346934733470346F340034BA
:0C09E60064346934733470346F340034AE
:0409F2000034003499
:0409F6000034003495
:0409FA000034003491
:0C09FE0042346F3472346E3465340034BF
:0C0A0A0064346934733470346F34003489
:040A16000034003474
:0C0A1A0042346F3472346E3465340034A2
:100A26004E344F344E342034443469347334703485
:100A36006F346E34693462346C3465342034003477
:040A46000034003444
:040A4A000034003440
:0A0A4E00623479346534203400343A
:100A580042346F3472346E34653420343A3400349E
:100A680045344E345434523445345A3420340034E6
:0A0A78006234793465342034003410
:100A82007234653473346534723476346134743458
:0A0A920069346F346E3420340034F0
:100A9C0063346F346E346634693472346D34653457
:060AAC0065342034003423
:100AB20042346F3472346E34653420343A34003444
:0A0AC20062347934653420340034C6
:100ACC0042346F3472346E34653420343A3400342A
:040ADC0000340034AE
:02400E007A3BFB
:00000001FF
